{
  "_format": "hh-sol-artifact-1",
  "contractName": "MainContract",
  "sourceName": "contracts/MainContract.sol",
  "abi": [
    {
      "inputs": [],
      "stateMutability": "nonpayable",
      "type": "constructor"
    },
    {
      "inputs": [
        {
          "internalType": "address",
          "name": "accountAddress",
          "type": "address"
        }
      ],
      "name": "givePrescription",
      "outputs": [
        {
          "internalType": "bool",
          "name": "",
          "type": "bool"
        }
      ],
      "stateMutability": "nonpayable",
      "type": "function"
    },
    {
      "inputs": [],
      "name": "owner",
      "outputs": [
        {
          "internalType": "address",
          "name": "",
          "type": "address"
        }
      ],
      "stateMutability": "view",
      "type": "function"
    },
    {
      "inputs": [
        {
          "internalType": "address",
          "name": "accountAddress",
          "type": "address"
        }
      ],
      "name": "personHasPrescription",
      "outputs": [
        {
          "internalType": "bool",
          "name": "",
          "type": "bool"
        }
      ],
      "stateMutability": "view",
      "type": "function"
    }
  ],
  "bytecode": "0x608060405234801561001057600080fd5b50336000806101000a81548173ffffffffffffffffffffffffffffffffffffffff021916908373ffffffffffffffffffffffffffffffffffffffff16021790555061044f806100606000396000f3fe608060405234801561001057600080fd5b50600436106100415760003560e01c80630564544a146100465780638b903301146100765780638da5cb5b146100a6575b600080fd5b610060600480360381019061005b91906102a4565b6100c4565b60405161006d9190610329565b60405180910390f35b610090600480360381019061008b91906102a4565b610201565b60405161009d9190610329565b60405180910390f35b6100ae61026b565b6040516100bb919061030e565b60405180910390f35b6000339150600160008373ffffffffffffffffffffffffffffffffffffffff1673ffffffffffffffffffffffffffffffffffffffff16815260200190815260200160002060009054906101000a900460ff1615610156576040517f08c379a000000000000000000000000000000000000000000000000000000000815260040161014d90610344565b60405180910390fd5b60018060008473ffffffffffffffffffffffffffffffffffffffff1673ffffffffffffffffffffffffffffffffffffffff16815260200190815260200160002060006101000a81548160ff021916908315150217905550600160008373ffffffffffffffffffffffffffffffffffffffff1673ffffffffffffffffffffffffffffffffffffffff16815260200190815260200160002060009054906101000a900460ff169050919050565b6000339150600160008373ffffffffffffffffffffffffffffffffffffffff1673ffffffffffffffffffffffffffffffffffffffff16815260200190815260200160002060009054906101000a900460ff16156102615760019050610266565b600090505b919050565b60008054906101000a900473ffffffffffffffffffffffffffffffffffffffff1681565b60008135905061029e81610402565b92915050565b6000602082840312156102b657600080fd5b60006102c48482850161028f565b91505092915050565b6102d681610375565b82525050565b6102e581610387565b82525050565b60006102f8602683610364565b9150610303826103b3565b604082019050919050565b600060208201905061032360008301846102cd565b92915050565b600060208201905061033e60008301846102dc565b92915050565b6000602082019050818103600083015261035d816102eb565b9050919050565b600082825260208201905092915050565b600061038082610393565b9050919050565b60008115159050919050565b600073ffffffffffffffffffffffffffffffffffffffff82169050919050565b7f7468697320706572736f6e20616c72656164792068617320612070726573637260008201527f697074696f6e0000000000000000000000000000000000000000000000000000602082015250565b61040b81610375565b811461041657600080fd5b5056fea264697066735822122062f1fd5b4ea284f2a833c198516f203f9b419a86418740541dd1812e5c58944c64736f6c63430008040033",
  "linkReferences": {},
  "deployedLinkReferences": {}
}